{
  "contractName": "Demo",
  "abi": [
    {
      "inputs": [
        {
          "internalType": "uint256",
          "name": "number",
          "type": "uint256"
        }
      ],
      "name": "set",
      "outputs": [
        {
          "internalType": "uint256",
          "name": "",
          "type": "uint256"
        }
      ],
      "stateMutability": "view",
      "type": "function",
      "constant": true
    },
    {
      "inputs": [],
      "name": "get",
      "outputs": [
        {
          "internalType": "uint256",
          "name": "",
          "type": "uint256"
        }
      ],
      "stateMutability": "view",
      "type": "function",
      "constant": true
    }
  ],
  "bytecode": "0x6080604052600e60005534801561001557600080fd5b50610164806100256000396000f3fe608060405234801561001057600080fd5b50600436106100365760003560e01c806360fe47b11461003b5780636d4ce63c1461006b575b600080fd5b610055600480360381019061005091906100d7565b610089565b6040516100629190610113565b60405180910390f35b610073610093565b6040516100809190610113565b60405180910390f35b6000819050919050565b60008054905090565b600080fd5b6000819050919050565b6100b4816100a1565b81146100bf57600080fd5b50565b6000813590506100d1816100ab565b92915050565b6000602082840312156100ed576100ec61009c565b5b60006100fb848285016100c2565b91505092915050565b61010d816100a1565b82525050565b60006020820190506101286000830184610104565b9291505056fea2646970667358221220867794848b93921b35d5fd0b1ccd7d884f859db27e6e54232a6f051c026a612964736f6c63430008110033",
  "immutableReferences": {},
  "source": "//SPDX-License-Identifier: MIT\n\npragma solidity ^0.8.4;\n\ncontract Demo{\n    uint number=14;\n    function set(uint number) public view returns(uint) {\n        number=number;\n        return number;\n    }\n    function get()public view returns(uint) {\n        return number;\n    }\n}",
  "sourcePath": "/home/hp/Documents/blockchain/ProjectAuth0/screen1/contracts/Demo.sol",
  "compiler": {
    "name": "solc",
    "version": "0.8.17+commit.8df45f5f.Emscripten.clang"
  },
  "schemaVersion": "3.4.11",
  "updatedAt": "2023-01-18T05:45:21.488Z",
  "networkType": "ethereum",
  "devdoc": {
    "kind": "dev",
    "methods": {},
    "version": 1
  },
  "userdoc": {
    "kind": "user",
    "methods": {},
    "version": 1
  }
}